:100000000C9490010C94AD010C94AD010C94AD01D5
:100010000C94AD010C94AD010C94AD010C94AD01A8
:100020000C94AD010C94AD010C940E210C94E121C3
:100030000C94961B0C94AD010C94AD010C94AD0185
:100040000C94AD010C94AD010C94AD010C94AD0178
:100050000C94AD010C942E1C0C94AD010C94AD01CC
:100060000C94AD010C94AD010C94AD010C94AD0158
:100070000C94AD010C94AD010C94AD010C94AD0148
:100080000C94AD010C94AD010C94AD010C94AD0138
:100090000C94AD010C94AD010C94AD010C94AD0128
:1000A0000C94AD010C94AD010C94AD011E001F0029
:1000B000200021002200230024002500260000004B
:1000C0000000000000002A2B2800000000000000B3
:1000D00000000000000000000029000000002C1EAD
:1000E0003420212224342627252E362D3738271E6A
:1000F0001F202122232425263333362E37381F0490
:1001000005060708090A0B0C0D0E0F101112131427
:1001100015161718191A1B1C1D2F3130232D3504E5
:1001200005060708090A0B0C0D0E0F101112131407
:1001300015161718191A1B1C1D2F3130354C0000CD
:1001400000000000000000000000000000000000AF
:10015000000000000000000000000000000000009F
:1001600000007E0F00D4FFFFFFC7000000781203DD
:100170004D006F006E0063006F005000610064006E
:1001800000000E0366004D006F006E0063006F00FC
:1001900000000403090409025B00030100A0FA093E
:1001A00004000001030101000921110100012244A2
:1001B0000007058103080001090401000203000093
:1001C00000092111010001222200070582032000FD
:1001D00001070503032000010904020001030000D8
:1001E0000009211101000122B60007058403200047
:1001F000011201000200000008504D090000010139
:100200000200010660FF0961A1010962150026FFD5
:10021000009520750881020963150026FF009520CE
:1002200075089102C005010902A10185020901A119
:100230000005091901290815002501950875018196
:10024000020501093009311581257F950275088164
:100250000609381581257F950175088106050C0A68
:1002600038021581257F950175088106C0C00501FA
:100270000980A101850319012AB700150126B700DD
:10028000950175108100C0050C0901A101850419B3
:10029000012AA002150126A002950175108100C057
:1002A00005010906A1018506050719E029E71500E2
:1002B00025019508750181020507190029EF150030
:1002C000250195F07501810205081901290595059B
:1002D00075019102950175039101C005010906A1FF
:1002E00001050719E029E715002501950875018129
:1002F000029501750881010507190029FF150026DF
:10030000FF009506750881000508190129051500EB
:100310002501950575019102950175039101C000B4
:1003200011241FBECFEFDAE0DEBFCDBF11E0A0E0A9
:10033000B1E0ECE8F9E402C005900D92AC39B107E8
:10034000D9F722E0ACE9B1E001C01D92AF38B207A5
:10035000E1F70E94EC100C9460240C9400008111D1
:1003600013C0633088F4433078F470E0FB01EE0F83
:10037000FF1FE60FF71FE40FF11DEE0FFF1FE455FF
:10038000FF4F85919491089581E090E0089581E078
:1003900008950E94C701089581E008950E94C70151
:1003A00008950E94CE01089508950E94D4010895F1
:1003B000A6E0B0E0EEEDF1E00C94BC2349835A8353
:1003C0009E833091A30189819A8131111AC03E81A7
:1003D000332399F0222389F00E946507182F682F94
:1003E00089819A810E943C0769817A81812F0E94CC
:1003F0006B0E2696E3E00C94D8230E945007182F2A
:10040000F3CF0E94650769817A81F1CFFC01262F25
:100410004081518162817381848195810E94D801DC
:100420000895CF93DF93D82FC92F61E00E94060271
:100430006D2F7C2F0E94C901DF91CF910895CF933A
:10044000DF93D82FC92F60E00E9406026D2F7C2F0A
:100450000E94D501DF91CF91089581E008950E9417
:100460002D020895CF93C82F0E9430068C2F0E9432
:100470002F022FEF84E39CE0215080409040E1F771
:1004800000C00000CF91089581E00E9432020E94D6
:10049000521C089580E00E9432020E94631C08955D
:1004A0000F931F93CF93DF938C0161E00E940602AC
:1004B000EC01B8010E945918882309F442C0B80120
:1004C000CE010E94D1018823E1F1B801CE010E9442
:1004D00067178823B1F1B801CE010E94B9128823B1
:1004E00081F1B801CE010E948E12882351F1B8012A
:1004F000CE010E94A817882321F1F8018581882365
:1005000081F0CA35FCE7DF0739F178F4C130ECE758
:10051000DE07F9F0C330FCE7DF07C9F0C115DC479F
:1005200071F0C8010E94CC010DC0CB35ECE7DE07AD
:10053000B1F0CC35DC47A9F70E94B70BF2CF0E948F
:10054000440280E0DF91CF911F910F9108950E94A6
:10055000C90B0E944A02F5CF0E94C10BE2CF0E9454
:10056000C50BDFCF0E94731B0E94D90208950E9421
:10057000DD020E94781B0895089581E00895089592
:10058000CF93DF93D82F0E94BD02C82F882319F084
:100590008D2F0E94BF028C2FDF91CF910895089577
:1005A000CF93C82F0E94BC028C2F0E94C002CF9113
:1005B000089580E00E94D00208950E94AF190E9421
:1005C000D0020895CF930E94AF19C82F80919E0149
:1005D0008C1779F0C0939E010E94021C60939F01CA
:1005E0007093A0018093A1019093A2018C2F0E948F
:1005F000D002CF910895ADE0B0E0E1E0F3E00C94DB
:10060000BD23488759876A877B878C879D8791118F
:100610000E94C20A1F8286E0FE013896DE01119612
:1006200001900D928A95E1F78D8181110DC029818C
:100630003A814B815C816D817E818F810E94080AA5
:100640002D96E2E00C94D923CE0101960E9411026E
:100650008111EDCFF5CFFC018481813021F48081BF
:1006600091810E948E070895662329F00E94271425
:100670000E94FD1408950E948514FACFCF93C82FCD
:10068000882399F08CEF8C0F813A88F48C2F0E948C
:10069000521A882329F08C2F0E94F71A0E945A0BB5
:1006A0008C2F0E94E01A0E945A0BCF91089580E28D
:1006B0008C0F883048F4C77081E001C0880FCA955C
:1006C000EAF70E94A30AEFCF8BE58C0F833038F452
:1006D0002C2F2452330BC9010E94E519E6CFE8E51F
:1006E000EC0FEB3150F4F0E0EE0FFF1FE65EFE4F33
:1006F000808191810E940B1AD8CF83E38C0F8331C4
:10070000A0F661E08C2F0E943403CFCF882381F1C3
:100710009CEF980F913A28F40E94F71A0E945A0B06
:10072000089590E2980F983050F4877091E001C0DE
:10073000990F8A95EAF7892F0E94A90AEFCF9BE5C6
:10074000980F933028F480E090E00E94E519089516
:1007500098E5980F9B3128F480E090E00E940B1AF6
:10076000089593E3980F933118F460E00E943403E6
:1007700008951F93CF93DF93182FEB010E943E0340
:10078000209739F4812F0E948603DF91CF911F912A
:1007900008958FE99FE00197F1F700C000002197CD
:1007A000EFCF60E070E0893311F460E570E00E9403
:1007B000B9030895882321F00E94A30A0E945A0BCE
:1007C0000895882321F00E94A90A0E945A0B0895D7
:1007D000A0E0B0E0EEEEF3E00C94B7236C01D62F6E
:1007E000C72FFC011581068102950F700E94980A9F
:1007F000E82E8823F9F0E12E1123E1F08C2F807F81
:10080000803461F080E28D0F8830F0F08C2F807E94
:10081000803221F4D230C0F00023B1F08091770211
:1008200082FF12C082E00E948A0B0E94980A91E027
:10083000E82EE926EC2FE295EF70C03CB0F5F0E031
:10084000EE59FB4D0C94A023E12CF4CF0C2F0F702C
:10085000C03110F00295007F112399F0002359F068
:1008600080E28D0F883010F0D11107C0802F0E94D8
:10087000A30A0E945A0B8D2F51C0802F0E94B40AE8
:10088000F8CF8D2F0E948603002379F080E28D0F30
:10089000883010F0D11104C0802F0E94A90A03C033
:1008A000802F0E94BA0A0E945A0BEE2089F00E9403
:1008B000940A80FD0DC0F60115820E948E0A0E94E6
:1008C000AA06C6010E94F7050E948E0A0E94B6067B
:1008D000CDB7DEB7E8E00C94D323FC2FFF70FF2EDA
:1008E000C07FC03219F0F29480EFF822DD2341F08E
:1008F000D130D1F1112309F444C00023F1F0BBCF72
:100900008091770282FD15C0112359F0FF2029F054
:100910008F2D0E94A30A0E945A0B80E00E943E0382
:10092000C4CF80E00E948603FF2009F4BECF8F2D44
:10093000B4CF112369F0011104C08F2D0E94DA0396
:10094000B4CF013009F0B1CF8F2D0E94DA0AADCFBC
:100950000111ABCF8F2D0E94E1038F2D0E94E60A7B
:100960008F2D0E94C90AA1CF112321F0063008F073
:100970009CCFE3CF053008F098CF8F2D0E94E10384
:1009800094CF0023D1F3D93349F42FEF87EE93E0CE
:10099000215080409040E1F700C000008D2F0E9460
:1009A000860383CF8C2F869586958370882369F084
:1009B000813009F07ACF8D2F9C2F9370111102C0D6
:1009C00080E090E00E940B1A70CF8D2F9C2F9370C7
:1009D000111102C080E090E00E94E51966CF612FFE
:1009E0008D2F0E94340361CF8C2F8370811134C00E
:1009F000111124C04D2F429546954770440F440F66
:100A00008D2F8F70042E01C0880F0A94EAF7D071E1
:100A1000DD2341F02FE030E001C0220F4A95EAF7D4
:100A2000D22FD095C695C695C3708D2BC23071F06C
:100A3000C33079F0C13039F00E9486060E94AF19A8
:100A40000E94D00232CF0E948006F8CF0E948C060E
:100A5000F5CF0E947D06F2CF112339F1C0FFEECF12
:100A60004D2F429546954770440F440F8D2F8F7040
:100A7000042E01C0880F0A94EAF7D071DD2341F0FB
:100A80002FE030E001C0220F4A95EAF7D22FD0952F
:100A9000C695C695C3708D2BC23069F0C33071F016
:100AA000C13031F00E94D806C9CF823038F2D8CF99
:100AB0000E94D206C3CF0E94DE06C0CF0E949806D5
:100AC000BDCFCF70112339F08C2F0E94AA068D2F35
:100AD0000E94DA03B3CF8D2F0E94E1038C2F0E9476
:100AE000B606ACCFD23F31F170F4D03FB9F0D13F70
:100AF000B1F1112309F451C0002309F44BC08D2F2B
:100B00000E943E039BCFD33FE1F0D43F21F111116E
:100B1000F3CF011150C08C2F8F71E1CF112341F021
:100B2000053008F08BCF8C2F8F710E94C60686CFC0
:100B30000530F7CF8C2F8F711111D1CF0E94AA06EB
:100B40007DCF112329F08C2F8F710E94A10676CFC3
:100B50000E949D0673CF8091770282FD06C08C2F84
:100B60008F71112309F4BBCFE9CF112349F0CF7165
:100B70008C2F0E94AA0663E08C2F0E946C0B5ECF24
:100B800081E00E948A0B023008F458CF82E00E9474
:100B90008A0B54CF8C2F8F71D1CF002309F4BBCF98
:100BA000D93349F4EFEFF7EE23E0E150F040204075
:100BB000E1F700C000008D2F0E9486033FCF0F9306
:100BC0001F93CF93DF93EC01688179818D810E941F
:100BD0009B078C010E94E4060E947C06B801CE01AE
:100BE0000E94E803DF91CF911F910F910895CF9359
:100BF000DF93EC018C81882399F0CE010E94500292
:100C0000811111C00E94980A882351F08D81882398
:100C100039F08091770282FF03C082E00E948A0B44
:100C2000DF91CF910895CE010E94DF05CE010E9491
:100C30001F02F6CF80E090E00E94E51980E090E08E
:100C40000E940B1A0E94C20A0E945A0B0E941A1597
:100C50000E94FD1408950E940E1B0E941A0608951A
:100C60000E94B10A0E942B060895282F92959F702A
:100C7000963091F060F4925F9F70923030F481E092
:100C8000203F79F030F4283E30F080E008959A5FFC
:100C9000F3CF243FD1F7089581E0283EE0F3213FD0
:100CA000F9CF0895FC018481882339F080819181F6
:100CB0000E948E070E943506089580E00895A6E000
:100CC000B0E0E5E6F6E00C94BD232696E2E00C9455
:100CD000D923A7E0B0E0EFE6F6E00C94BD23279619
:100CE000E2E00C94D92308950E94730608950E94AF
:100CF00074068093AB01089508950E9477060895C5
:100D00009091AB01892B0E94770608959091AB01D9
:100D100089230E94770608959091AB0189270E944C
:100D2000770608950E94730608950E94920608951A
:100D30000E9495068093AA01089580E00E9498067B
:100D4000089591E001C0990F8A95EAF7892F0E94D2
:100D50009806089521E030E001C0220F8A95EAF755
:100D60008091AA01822B0E949806089521E030E02C
:100D7000A90102C0440F551F8A95E2F7CA01809568
:100D80009091AA0189230E949806089521E030E0FD
:100D900001C0220F8A95EAF78091AA0182270E945A
:100DA000980608959091AA01892B0E9498060895AB
:100DB0009091AA0189230E94980608959091AA0112
:100DC00089270E949806089508959B01677091E015
:100DD00001C0990F6A95EAF763E0369527956A9501
:100DE000E1F7B901660F771F260F371FFA01E20FEF
:100DF000F31F40E050E0682F70E08191DF01119710
:100E00009B01042E02C0369527950A94E2F72170C3
:100E100021952827292328272C934F5F5F4F4330A4
:100E2000510559F708959C01A82FA77083E03695C6
:100E300027958A95E1F7C901880F991F820F931FA3
:100E4000FB01E80FF91F40E050E080E0219130E025
:100E50000A2E02C0369527950A94E2F721703327AF
:100E6000042E01C0220F0A94EAF7822B4F5F5F4FD6
:100E70004330510559F70895482F862F933078F461
:100E8000433068F4292F30E0B901660F771F620FF5
:100E9000731F640F711D44EA51E00E94E506089536
:100EA000482F933080F4833070F4292F30E0C9014B
:100EB000880F991F820F931F64EA71E0840F911DC0
:100EC0000E941307089580E00895A0E0B0E0EBE6EB
:100ED000F7E00C94B8237C010091AA018091AB014A
:100EE000082BC3E0D0E010E0C8010C2E02C095959D
:100EF00087950A94E2F780FD09C02197A8F7D12CC5
:100F00008D2DCDB7DEB7E7E00C94D423DC2EB701EE
:100F10008C2F0E94770E019781F3F2CFCF93DF934E
:100F2000D82FC92F0E9465076D2F7C2F0E94770E46
:100F3000DF91CF9108951F93CF93DF93162FD72F73
:100F40009091A301992341F0862F972F0E948E073D
:100F5000DF91CF911F910895882381F0862F972FDD
:100F60000E946507C82F682F812F9D2F0E943C0784
:100F7000612F7D2F8C2F0E94770EEACF862F972F1F
:100F80000E945007C82FF4CFE1E0F0E0DF0102C07B
:100F9000AA0FBB1F6A95E2F7BD01DF0102C0AA0FCD
:100FA000BB1F4A95E2F76A2B01C0EE0F2A95EAF7BC
:100FB000962F9823961302C08E2B0895E0958E23CA
:100FC0000895242F462F682F8091AA010E94C407FC
:100FD0000E94980608950F931F93CF93E091AC0160
:100FE000C7E08091AD018E1304C0CF911F910F9186
:100FF00008950E2F10E0CE9FF0011124E255FE4F10
:1010000020813181428153816481758186810E9472
:101010006906F8013196E770E4CF2091E60130913E
:10102000E7014091E8015091E9016091EA01709176
:10103000EB018091EC010E94690608958091EC011A
:10104000803178F48091EB01882359F0E091AC0174
:101050002091AD013091E7014091E60157E02E1358
:1010600001C008956E2F70E05E9FF0011124DF0132
:10107000A255BE4F14968C911497882361F1119656
:101080008C911197831327C08C91841324C01596DB
:101090008C91159781111FC012968D919C91A091F2
:1010A000E801B091E9018A1B9B0B883C910598F4FB
:1010B0008091EC018F7080618093EC01EC54FE4FC5
:1010C00080818F708061808386EE91E00E94F705B9
:1010D0000E94EB070895FB013196E770C0CFE091C5
:1010E000AC019091AD0127E0E91302C080E00895C2
:1010F000AE2FB0E02E9FF0011124E255FE4F31815A
:10110000361306C03081381303C03581341304C050
:10111000FD013196E770E8CF81E008958F929F92AC
:10112000AF92BF92DF92EF92FF920F931F93CF93F4
:10113000DF93CDB7DEB72D970FB6F894DEBF0FBEA5
:10114000CDBF8C0186E0F801DE01189601900D926A
:101150008A95E1F7F801E080F580A280B380848170
:1011600096EE892E91E0992E9091EA0191111BC083
:10117000882309F4FCC0FF2009F43DC1C8010E9486
:101180005206882309F437C187E0F801D4010190A1
:101190000D928A95E1F7C4010E942B030E941E085C
:1011A0000E940D08E4C0D090EB012091E80130913D
:1011B000E901A501421B530BDD2009F4DBC0483CCB
:1011C000510508F0A6C0882309F4D1C09091E70129
:1011D00091808091EC01803108F06BC0991228C099
:1011E0009091E6019E1124C0F1105DC08F70806166
:1011F0008093EC010E940D0886EE91E00E94F705B5
:101200008091EC01F8018683F12C8F2D2D960FB67D
:10121000F894DEBF0FBECDBFDF91CF911F910F912C
:10122000FF90EF90DF90BF90AF909F908F900895C8
:10123000F11039C040E0692D8E2D0E946F0840E00A
:10124000692D8E2D0E946F08F82E8111DDCF8885C3
:1012500099850E948E07292F22952F70903450F483
:101260009F70223080F0992399F0F8019681903197
:1012700078F4CBCF2A5F2F70223078F0C8010E941B
:10128000F705FD2CC2CF992319F0882309F4BDCFAF
:10129000805E883008F4B9CFF1CF803F08F4B5CF35
:1012A000815F8230F7CF8091EC0181608093EC0107
:1012B000ABCF991207C09091E6019E1103C0FF20A9
:1012C00009F479C0C8010E945206882309F493C02A
:1012D000FF2009F490C08091EC01803288F02091C9
:1012E000E6013091E7013A832983BC82AB82909179
:1012F000EA019D831E828F83CE0101960E94F7052D
:1013000087E0F801A6EEB1E001900D928A95E1F731
:1013100045CF9091EC019031A0F4488559856A85BC
:101320007B858C859D850E945F0686EE91E00E94FC
:10133000F70587E0F40111928A95E9F70E940D08FC
:1013400063CF8823A1F02091E70181812813BACFD0
:101350008091E6018E11B6CFF110B4CF9683C8010B
:101360000E94F70587E0F40111928A95E9F7FF24BE
:10137000F3944BCF483C510508F041C08823B9F3A2
:10138000FF20C9F19091E701818198132AC08091D3
:10139000E6018E1126C08091EC0180FD19C08031DC
:1013A000B8F08683807F803F39F08681982F907FC8
:1013B000905F8F70892B8683C8010E94F70587E0B4
:1013C000F801A6EEB1E001900D928A95E1F7E8CE22
:1013D00087E0F801A6EEB1E001900D928A95E1F761
:1013E000C6CFC8010E94520681118ACF8091EC01BC
:1013F00081608093EC01C8010E94F705B8CF488551
:1014000059856A857B858C859D850E945F0691CF75
:10141000AEE0B0E0EEE0FAE00C94BC232887398718
:101420004A875B876C877D878E87CE0108960E94EE
:101430008E088823B1F06C85662341F028853985B4
:101440004A855B857D858E850E94690617E08091BF
:10145000AC019091AD0189133EC02E96E3E00C944F
:10146000D82387E0FE013896DE01119601900D9297
:101470008A95E1F72091AD014091AC018C858823DC
:1014800029F330E0C90101968770992750E084174D
:10149000950799F097E0929FD001939FB00D11248A
:1014A000A255BE4FFE01319601900D929A95E1F73B
:1014B0008093AD010E94EB07C9CF0E9430061092C5
:1014C000AD011092AC0187E0E6EEF1E0DF011D9284
:1014D0008A95E9F7BBCF189FC001112482559E4F12
:1014E0000E948E08882309F4B8CFE091AC011E9FBA
:1014F000F0011124E255FE4F208131814281538158
:101500006481758186810E9469068091AC0190E0BA
:101510000196877099278093AC0199CF809115022D
:101520008695869586950895809115028770089511
:1015300090911502977081E0911101C080E00895AB
:1015400080914102089590914102982B909341021D
:101550000895982F909580914102892380934102AC
:10156000089510924102089590914002982B909313
:1015700040020895982F909580914002892380938E
:101580004002089510924002089508950E94C50AED
:10159000089590911602292F2823222331F0809557
:1015A0008923809316020E94C60A089508950E9416
:1015B000D60A089590911702292F2823281729F079
:1015C000982B909317020E94D70A089590911702C2
:1015D000292F2823222331F0809589238093170215
:1015E0000E94D70A089580911702882329F010924B
:1015F000170280E00E94D70A0895CF93DF93C0912D
:10160000410280914002C82BD0911702DD2331F0B6
:101610000E94311A81110E94F30ACD2B8C2FDF9189
:10162000CF910895CF93DF93C0910201D091030130
:101630000E94FD0A8883C0910201D091030148E015
:1016400050E06DE072E0CE010E94F823892B59F042
:1016500088E0FE01ADE0B2E001900D928A95E1F7DD
:10166000CE010E94BC19DF91CF910895CF93DF93F3
:10167000C0910001D09101010E94FD0A8983C091AF
:101680000001D091010140E250E06DEE71E0CE0129
:101690000E94F823892B59F080E2FE01ADEEB1E003
:1016A00001900D928A95E1F7CE010E94C719DF9152
:1016B000CF91089580911901882339F080917602A5
:1016C00087FF03C00E94360B08950E94120B0895F5
:1016D00008950E94680B08959091770292FF11C0BF
:1016E00098E0899F90011124622B609315020E945B
:1016F000AA06809115028695869586950E94690BAB
:1017000008950E94AA0608951092150280E00E9492
:10171000690B089590911502809589238093150295
:10172000282F277021110DC0891759F09091770249
:1017300092FF07C08695869586950E94B6060E9400
:10174000840B08959091770292FB222720F92817A5
:1017500069F080FB92F990937702809176029091E4
:1017600077020E94EB0B82E00E948A0B0895809121
:10177000770282FB882780F991E089270E94A20BDB
:10178000089581E00E94A20B089580E00E94A20BC0
:1017900008956FEF7FEF80E090E00E944A24089563
:1017A00080E090E00E941624863E9E4F19F40E942D
:1017B000E317089580E0089582E090E00E940E24EF
:1017C000089583E090E00E940E24089584E090E064
:1017D0000E9416240895BC0184E090E00E944A24EF
:1017E0000895AB01BC018FE090E00E943E24089573
:1017F000AB01BC0183E190E00E943E24089560E0CB
:1018000070E0CB010E94F80B089560E070E0CB011E
:101810000E94F10B0E94FF0B0895A8E0B0E0E3E105
:10182000FCE00C94BD2366EE7EEF80E090E00E9429
:101830004A2460E082E090E00E942C2481E08093C2
:10184000AB0161E083E090E00E942C2460E074E151
:1018500084E090E00E944A2460E086E090E00E94EC
:101860002C246FEF87E090E00E942C2440E050E0B1
:10187000BA0188E090E00E943E2460E084E290E0BB
:101880000E942C2460E087E190E00E942C2460E01C
:101890008CE090E00E942C2460E08DE090E00E94BB
:1018A0002C2419821A821B821C821D821E821F8296
:1018B000188648E050E068E170E0CE0101960E9491
:1018C0001C2440E050E0BA0180E290E00E943E24F7
:1018D00080E00E94FC170E943B180E94050C28968D
:1018E000E2E00C94D9230E940D0C0895682F8EE03D
:1018F00090E00E942C240895A6E0B0E0E2E8FCE02D
:101900000C94BB230E94F61B8C01809142029091A3
:1019100043028017910779F019821A820E94F61B00
:10192000BC0149815A8180E090E00E94FB02109343
:101930004302009342022696E4E00C94D7230E94CF
:10194000021C60934B0270934C0280934D02909363
:101950004E0260934702709348028093490290932D
:101960004A020895089508950E94B20C08950895BA
:101970000E94B70C08958FE69FE00E94F9100E9424
:10198000B30C0E94B40C089581E008950E94C40C29
:1019900008950E94C40C0895089508950E94CC0CE7
:1019A0000E94CD0C08950E948E0F0E94CF020895D0
:1019B0000E94ED1B0E944B180E944A100E94D30CFB
:1019C0000E94B80C0895A6E0B0E0E9EEFCE00C94AB
:1019D000B5230E94C60C81110AC00E947C0C0E9493
:1019E0003B150E94E2022696EAE00C94D1230E9465
:1019F00060101091440280E00E94B10F81130EC06C
:101A00001091450281E00E94B10F181307C0109198
:101A1000460282E00E94B10F1817F9F280914F023E
:101A200081FD0E94B70F0E94C90CC82E84E4A82E25
:101A300082E0B82E00E0802F0E94B10F182FF50130
:101A400091915F01891741F1D82ED926F12CEE240E
:101A5000E3948D2D8E218823B9F0CC20A9F0F98252
:101A60000A830E94F61B9C838B8381E08D8391E027
:101A7000812F8E21811101C090E049815A816B81B3
:101A80007C818D810E94FB02F394EE0CF3E0FF1247
:101A9000E0CFF501319710830F5F033061F60E94AC
:101AA0009F0C9DCF1F93CF93DF930E947C0EEC0180
:101AB000811522E5920708F053C0811540E594078F
:101AC00008F0DDC0803E9105F8F48D3C910508F0EA
:101AD000AEC0883A910580F4853A910508F099C026
:101AE0008130910521F00497813A910550F4CE019F
:101AF000DF91CF911F910895885A91094B9708F46F
:101B00008BC0C0E0D0E0F3CF811550E49507F8F426
:101B1000C11580E2D80708F0CBC0C83ED10538F324
:101B2000CE019A9581159F4160F78D2F0E94200F5D
:101B3000182FCE0199270E947C0E212F30E0322FE2
:101B40002227E901CC27DF71C82BD92BD0CF9927C9
:101B50000E947C0ECC27DF70C82BD92BD06AC7CF50
:101B6000803842E59407C8F5803652E5950708F0BD
:101B700067C0C03482E5D807B0F08C2F8695869573
:101B8000877020E2829FC0011124C37021E030E001
:101B9000A90102C0440F551FCA95E2F7EA01C82BFC
:101BA000D92BDC68A4CFC03252E5D50708F041C07C
:101BB0008C2F8695869520E2829FC0011124C370E8
:101BC00021E030E0A90102C0440F551FCA95E2F799
:101BD000EA01C82BD92BDD688ACF803C52E59507F6
:101BE00060F48F71C03AD24508F03FC090E0982F62
:101BF0008827EC01C46FD06A7ACF805C92458097C9
:101C000008F07FCFDC2FCC27CC27DF71C06FD06AE4
:101C10006ECFA497D0646BCFC85AD0E0CC0FDD1F35
:101C2000C05BDE4F0990D881C02DD46460CFD065F1
:101C30005ECFCF71D0E0DC2FCC27C16FD06A57CFF9
:101C400086958695877020E2829FC0011124C3701B
:101C500021E030E0A90102C0440F551FCA95E2F708
:101C6000EA01C82BD92BDA6842CF0E94200FC82F77
:101C7000D0E0DC2FCC27CC27DF71D06238CF8F713A
:101C80000E94200F65E0D695C7956A95E1F7CF7061
:101C9000D0E0DC2FCC27282F30E084FF05C054E0B3
:101CA000220F331F5A95E1F7C22BD32BD0691FCFD8
:101CB0008D2F8F710E94200F182FCE0199270E941F
:101CC0007C0E212F30E0322F222722273F71282B34
:101CD000392BE901D2CF462F672F733028F44330D8
:101CE00018F40E94AC11089580E090E008950E94DD
:101CF0006B0E0E94520D0895803E9105D1F1C8F4FB
:101D00008133910509F47FC048F48932910509F4C3
:101D10006FC08A32910509F47DC008958933910519
:101D2000E1F082389105C9F08533910509F45BC073
:101D30000895843E9105D1F148F4823E910531F138
:101D4000833E910541F181EE90E00895863E910534
:101D5000C1F1873E9105E1F108952091760223704B
:101D6000211165C02091770223FF14C089E290E021
:101D700008952091760220FD43C03091770230FF14
:101D800009C024FF4EC080E090E0089520917602C3
:101D900022FDF7CF08952091760222FD45C03091B3
:101DA000770230FD44C024FFF5CFEDCF20917702BC
:101DB00021FFF0CF8091760284FDE5CF87EE90E0A1
:101DC00008952091760223FFE5CF24FDDCCFF6CFE6
:101DD0002091760223FD2EC03091770231FFE3CFB0
:101DE00084EE90E008952091760225FFD3CFBECFF8
:101DF0002091760225FD21C02091770223FFCACFD2
:101E000089E390E008952091760226FFC3CF8AE20D
:101E100090E008952091760226FFBCCF81E390E008
:101E2000089583EE90E0089582EE90E0089580EEAC
:101E300090E0089586EE90E0089585E390E0AACFC3
:101E40009091760292FF10C041E0282F2471243037
:101E500009F040E031E0282F2871283009F030E007
:101E6000431711F02CE0822793FF10C041E0282F88
:101E70002471243109F040E031E0282F2871283105
:101E800009F030E0431711F02CE0822730917702FF
:101E900030FF10C051E0282F2171213009F050E0AF
:101EA00041E0282F2871283009F040E0541711F044
:101EB00029E0822731FF10C041E0282F2171213114
:101EC00009F040E031E0282F2871283109F030E096
:101ED000431711F029E0822794FD877E089580E062
:101EE00008950E94C90B08950E9460102FEF86E7A5
:101EF00091E0215080409040E1F700C000000E9436
:101F0000601080E00E94B10F80FF04C00E94710F3A
:101F10000E94521C08950E94740F08950E94D00BD5
:101F2000811102C00E94730C0E94DC0B80934F024F
:101F30000E94E60B90937702809376020E948B0FAB
:101F40000E94E10B0E947D068091AA010E949506E5
:101F5000089508950E94A90F089508950E94AD0F55
:101F60000895E82FF0E0E558FD4F80810895089529
:101F700080EA8A95F1F7089500C008950E94B80F8D
:101F80000895F894E82FE295EF70F0E041A18F708A
:101F900021E030E0B90102C0660F771F8A95E2F7B1
:101FA000CB01962F9095942391A392A1892B82A384
:101FB0007894089586EF0E94C10F85EF0E94C10FAB
:101FC00081E30E94C10F81E90E94C10F80E90E9454
:101FD000C10F84E90E94C10F0895A0E0B0E0E3EFD3
:101FE000FFE00C94B723EC01D62E062F10E0C801B9
:101FF00087579E4F7C01FC0180818F3F09F445C0CB
:10200000F894E82FE295EF70F0E091A18F7021E055
:1020100030E001C0220F8A95EAF7892F822B81A335
:1020200082A12095282322A378940E94BC0FE6E881
:10203000F1E091E0C12C81918F3F81F0A82FA29512
:10204000AF70A05EB0E02C9130E08F7002C035958B
:1020500027958A95E2F72170892F211180E0C82AFF
:10206000990F81E0E938F80731F7F70180818F3F58
:1020700011F00E94C10F61E0C11001C060E08D2D20
:102080000E94BE0FC00FD11FC882CDB7DEB7E8E0F7
:102090000C94D3230E94DA0F83E0EBE7F2E0DF0138
:1020A000982F1D929A95E9F7E8E7F2E0DF011D927B
:1020B0008A95E9F783E00E949E100E94AA0F089576
:1020C000A3E0B0E0E6E6F0E10C94BC231A821982AA
:1020D0001B8260E0CE0101960E94ED0F61E0CE010F
:1020E00001960E94ED0F62E0CE0101960E94ED0F75
:1020F00043E050E0BE016F5F7F4F88E792E00E94AF
:10210000F82321E0892B81F420E043E06BE772E0C3
:1021100088E792E00E949F10182F0E94AE0F812F37
:102120002396E3E00C94D82389819A81AB81809334
:10213000780290937902A0937A02E7CF0895A0E005
:10214000B0E0E5EAF0E10C94B723D82EE92EF62EA4
:10215000D72F042FC22F222379F081E080935202DF
:102160000E94F61B909351028093500280E0CDB7FD
:10217000DEB7E8E00C94D323C0905202CC20B1F338
:1021800080915002909151020E941F1C059770F39C
:1021900010E0A8016D2D7E2D8F2D9D2F0E94F8231C
:1021A000892B41F0A8016D2D7E2D8F2D9D2F0E9432
:1021B0000524CC2D109252028C2FD9CF0E94E61DFF
:1021C0000E94D80C0E94F31D08950E94F81D0E94E1
:1021D000E30C0E94121E08950E948F1B0E94CC1DCA
:1021E0000E94BB0C0E94DE100E94E5100E94CE0CE3
:1021F000FBCF90939D0180939C01089584E0089506
:1022000050E0440F551F96E0699F400D511D112469
:1022100092E1899F400D511D1124CA0189960895AC
:102220000F931F93CF93DF938430C8F46330B8F4D7
:102230004330A8F40E9400118C010E940E24C82F84
:10224000D0E0DC2FCC27C80101960E940E249E010D
:10225000282BC901DF91CF911F910F91089580E044
:1022600090E0F8CF0F931F93CF93DF93122F032F9C
:10227000843078F4633068F4433058F40E940011DD
:10228000EC01602F0E942C24612FCE0101960E9448
:102290002C24DF91CF911F910F9108951F93CF931D
:1022A000DF93D0E0C0E011C0412F6C2F8D2F0E9432
:1022B000AF019C01412F6C2F8D2F0E9432111F5FA7
:1022C000133091F7CF5FC33011F010E0EDCFDF5F37
:1022D000D43041F7DF91CF911F910895EF92FF9293
:1022E0000F931F93CF93DF938C01EA017A01E60EDF
:1022F000F71ECE15DF0529F4CDB7DEB7E6E00C9466
:10230000D52380E00834110520F4C80189960E9485
:102310000E2489930F5F1F4FECCFEF92FF920F9324
:102320001F93CF93DF938C01EA017A01E60EF71E2B
:10233000CE15DF0529F4CDB7DEB7E6E00C94D52342
:102340000834110528F46881C80189960E942C245C
:1023500021960F5F1F4FECCF843038F4633028F4A0
:10236000433018F40E941011089580E090E0089521
:1023700080E108958FE893E00895EF92FF920F9324
:102380001F93CF93DF938C01EA017A01E60EF71ECB
:10239000CE15DF0529F4CDB7DEB7E6E00C94D523E2
:1023A0000F3883E0180748F4C8018F589F4F0E94E8
:1023B0000E2489930F5F1F4FEBCF80E0FACFEF928F
:1023C000FF920F931F93CF93DF938C01EA017A0161
:1023D000E60EF71ECE15DF0529F4CDB7DEB7E6E031
:1023E0000C94D5230F3883E0180730F46881C801B6
:1023F0008F589F4F0E942C2421960F5F1F4FEACFCA
:10240000CF93DF93C1E7D0E060E0CE010E942C249F
:102410002196C11584E0D807B9F7DF91CF910895CF
:10242000A8E0B0E0E6E1F2E10C94B723F82E2FE04B
:10243000281708F46FC08FEF93E00E940E248111DB
:1024400069C001E710E0F11038C01A821982FE015C
:10245000339686E0DF011D928A95E9F76801BFEFA8
:10246000CB1ADB0AC8010E940E2489831A828823B2
:1024700009F450C08130D1F4780122E0E20EF11C61
:10248000C6010E940E248A83882309F443C09FEF6B
:10249000980F9330F8F4680183E0C80ED11CC7018F
:1024A0000E940E248B838823A9F11C8260E0CE0158
:1024B00001960E9491168601D1CF011584E018077C
:1024C00049F1C8010E940E240F5F1F4F8111F5CF03
:1024D000FA94B9CF8430B9F402E010E0C701AFEF4D
:1024E000EA1AFA0A0E940E24E1E0F0E0EC0FFD1F68
:1024F000E00FF11F8083882369F08C3731F4FE01EF
:10250000E00FF11F12826701D1CF0F5F1F4F07301D
:10251000110521F72896E8E00C94D323CF93DF939D
:10252000EB0186319C4719F50E94A00A9D819923F1
:10253000A1F08A7A91E0811101C090E0909353025A
:10254000882349F085E30E94E01A0E945A0B80E03C
:10255000DF91CF91089589E2F6CF809153028823CD
:1025600021F085E30E94F71AF0CF89E2FBCF81E0EA
:10257000EFCFCF93DF93EC01FB018581882309F432
:10258000D2C09E0130572332310508F0B2C00E94FC
:10259000E60B9093770280937602FE01E150F047BC
:1025A000E232F10520F4E259FB4D0C94A023809116
:1025B000760281608093760293C080917702886072
:1025C000809377028DC0809176028260F3CF8091F4
:1025D00076028460EFCF809176028860EBCF8091A5
:1025E00077028160EDCF809177028260E9CF8091A0
:1025F00076028061DFCF809176028062DBCF8091AE
:1026000076028064D7CF0E9430068091760280687F
:10261000D1CF809176028C60CDCF8091770283609C
:10262000CFCF809176028E7FC5CF80917702877F52
:10263000C7CF809176028D7FBDCF809176028B7F50
:10264000B9CF80917602877FB5CF809177028E7F58
:10265000B7CF809177028D7FB3CF809176028F7E46
:10266000A9CF809176028F7DA5CF809176028F7B56
:10267000A1CF0E943006809176028F779BCF809108
:102680007602837F97CF809177028C7F99CF80915C
:10269000760282FB992790F921E0922790FB82F93C
:1026A00090FB83F987CF80917702982F9095917056
:1026B0008E7F892B90FB81F983CF90917602892FB1
:1026C0008F7B96FF806476CF0E94300690917602D1
:1026D000892F97FB87F980586DCF81E00E94760C97
:1026E00080917602909177020E94EB0B0E94300657
:1026F00080E0DF91CF91089580E0F0CF9091760255
:10270000892F8F7E94FF806155CF90917602892F1B
:102710008E7F90FF81604ECF90917702892F877FC7
:1027200093FF88604DCF81E0E4CF282F35EB230362
:10273000C001112497FF04C080589109892F089582
:1027400080589F4FFBCF80915A0280FF0DC060914F
:10275000090170E0660F771F60387105C0F56115DB
:102760007105B9F1862F089581FF07C060910901B5
:1027700084E0689FB0011124EFCF82FF04C0609114
:10278000090188E0F6CF809159028823E9F0909101
:1027900008016091090170E0891730F093E0660F3D
:1027A000771F9A95E1F7D8CF869F9001879F300DCC
:1027B000112483E0220F331F8A95E1F7692F70E01F
:1027C000C9010E948C23C8CF68E070E0CBCF8FE7AF
:1027D000089581E0089580915A0280FF0CC06091B5
:1027E000050170E07595679575956795611571059B
:1027F00061F1862F089581FF06C06091050170E0A8
:1028000075956795F3CF6091050170E082FD15C065
:10281000209158022223B1F09091040160910501AA
:1028200070E0291750F4269FA001279F500D112416
:10283000692F70E0CA010E948C2360387105B0F2E4
:102840008FE7089561E070E0D4CF81E00895909122
:102850005D0220915E02922B20916002922B2091CA
:102860005F02922B992331F098E09093590291E006
:10287000909358028D3C31F40E94A313819580936C
:102880005E020895E2E3E80FE231B0F5F0E0E057D0
:10289000FB4D0C94A0230E94A313F1CF0E94A3131D
:1028A000819580935D0208950E94A313FACF0E9440
:1028B000EB1380935F0208950E94EB138195F9CF8B
:1028C0000E94EB1381958093600208950E94EB13A0
:1028D000FACF815D990B21E030E001C0220F8A958B
:1028E000EAF780915C02822B80935C0208958091CC
:1028F0005A02816080935A02089580915A02826040
:10290000F9CF80915A028460F5CF40915D028D3CF1
:1029100059F480915E0287FF0DC010925E0244233D
:1029200059F41092590208C08E3C81F480915E02E5
:1029300018169CF3442381F080915F02909160020D
:10294000892B811159C01092580208958F3C41F48F
:1029500047FFF0CF10925D0280915E028823E0CFA6
:10296000803D19F41416B4F3E5CF90915F02893DD0
:1029700029F41916FCF610925F02DCCF8A3D19F497
:1029800097FFD8CFF8CF909160028B3D29F497FF45
:10299000D1CF10926002CECF8C3D19F41916CCF332
:1029A000C9CF9FE2980F983090F4815D990B21E098
:1029B00030E0B90102C0660F771F8A95E2F7CB01BC
:1029C000809590915C02892380935C02B3CF8D3D0A
:1029D00031F480915A028E7F80935A02ABCF8E3DA4
:1029E00021F480915A028D7FF7CF8F3D09F0A2CF5D
:1029F00080915A028B7FF0CF08950E94F61B2091A0
:102A00005D0230915E02232B222321F08093560237
:102A10009093570220915F0230916002232B222372
:102A200021F080935402909355028BE592E00E942E
:102A3000D619089586E0EBE5F2E0DF011D928A9554
:102A4000E9F7109259021092580210925A02089512
:102A5000FC01828181110DC0838181110AC08481B2
:102A6000811107C081E09581911101C080E08170E2
:102A7000089581E0FCCFA6E0B0E0E1E4F5E10C943C
:102A8000BA2386E0EBE5F2E09E012F5F3F4FD901CC
:102A900001900D928A95E1F710925D0210925E020C
:102AA00010925F02109260028B819C81892B8901B8
:102AB000882391F080915602909157020E941F1C2A
:102AC0009C01809159028823C9F140910A0150E08C
:102AD0004217530708F43FC08D819E81892B8823BC
:102AE00099F080915402909155020E941F1C9C0104
:102AF00080915802882309F467C04091060150E094
:102B00004217530708F46EC0B8018BE592E00E94AB
:102B1000281B811105C08BE592E00E9428158111C8
:102B20000E94FD1486E0F801ABE5B2E001900D9241
:102B30008A95E1F72696E5E00C94D62340910B01A7
:102B40009AE0499FA00111244217530728F68F5F8E
:102B50008093590202C08F3FD1F7FB80FF2059F0CC
:102B60000E94A31391E01F140CF09FEF899F802D0A
:102B7000112480935D02FC80FF2059F00E94A31372
:102B800091E01F140CF09FEF899F802D11248093FA
:102B90005E0280915D02882309F49ECFF0905E0270
:102BA000FF2009F499CF0E949513811101C081E0A3
:102BB00080935D028F2D0E949513882319F08093D6
:102BC0005E028ACF81E0FBCF409107019AE0499FE6
:102BD000A00111244217530708F096CF8F5F80930E
:102BE000580202C08F3FD1F7FD80FF2059F00E94AC
:102BF000EB1391E01F140CF09FEF899F802D11249F
:102C000080935F02FE80FF2059F00E94EB1391E059
:102C10001F140CF09FEF899F802D11248093600278
:102C200080915F02882309F46FCFF0906002FF204B
:102C300009F46ACF0E949513811101C081E080934D
:102C40005F028F2D0E949513882319F080936002F4
:102C50005BCF81E0FBCFFF920F931F93CF93DF9366
:102C6000E82FF0E0E254FF4FF490282F26952695A8
:102C7000269530E0F901E25AFE4F94918770F901F0
:102C8000E25BFE4F049110E0082E02C015950795F7
:102C90000A94E2F701701127F901E25CFE4FC4913A
:102CA000D0E0082E02C0D595C7950A94E2F7C1700E
:102CB000DD27E92FF0E002C0F595E7958A95E2F768
:102CC000E0FD10C001151105C1F48F2D0E94D10344
:102CD000CD2B19F08CE20E94D103CDB7DEB7E5E031
:102CE0000C94D62381EE0E943E030115110579F460
:102CF0008F2D0E94D10381EE07C086EE0E943E0315
:102D00008F2D0E94D10386EE0E948603E1CF86EECE
:102D10000E943E038F2D0E94D10386EE0E948603FF
:102D2000EACFEF92FF921F93CF93DF93EC01162F20
:102D30008881882309F456C0813009F050C0898108
:102D40008130A1F47E0122E0E20EF11C8A810E9412
:102D5000D103E7012196812F882351F3EFE9FFE0AA
:102D60003197F1F700C000008150F6CF823041F476
:102D70007E0182E0E80EF11C8A810E943E03E9CFC9
:102D8000833041F47E01E2E0EE0EF11C8A810E9464
:102D90008603DFCF843011F02196DCCF2A81229682
:102DA00080E090E06AE0AE014F5F5F4F2053330B4D
:102DB0002A30310548F0019768F2EFE9FFE03197DA
:102DC000F1F700C00000F7CF689FF001699FF00D98
:102DD0001124C9018E0F9F1F2981EA01E4CF0E94AF
:102DE0002B16B8CFDF91CF911F91FF90EF900895F0
:102DF0000F931F93CF93DF93C42FD22FFC018581B4
:102E00008823C9F0409363020E94F61B90936202EC
:102E10008093610280E28C0F883040F4C77081E0BB
:102E200001C0880FCA95EAF70E94DA03DF91CF91BB
:102E30001F910F9108951091630214133CC080916B
:102E40006102909162020E941F1C883C910598F5D6
:102E5000C0E2CD0F1D1741F180E2810F883040F4B0
:102E6000177081E001C0880F1A95EAF70E94E1030C
:102E7000C83020F0802F0E94D103D8CF91E08D2F51
:102E8000877001C0990F8A95EAF7892F0E94DA03AB
:102E9000802F0E94D103D77081E001C0880FDA959E
:102EA000EAF70E94E103C2CF802F0E94D103C8300D
:102EB00008F0BCCFF0CF80E28C0F883008F0B6CF9E
:102EC000C77081E001C0880FCA95EAF7EACF0F9377
:102ED000FC01CB01E851FC47E730F10590F5EE55D8
:102EE000FB4D0C94A02306E221EE41EE6AE17CE763
:102EF0000E94F81680E00F91089507E225EE45EE56
:102F00006BE17CE7F5CF06E221EE40EE68E17CE77D
:102F1000EFCF07E225EE44EE69E17CE7E9CF06E278
:102F200021EE42EE6CE17CE7E3CF07E225EE46EED0
:102F30006DE17CE7DDCF08E221E045EE6EE17CE764
:102F4000D7CFFB01858181111092630281E0D3CF3D
:102F5000CF93DF939C01FB0127378CE7380739F0CB
:102F600028373C47F1F081E0DF91CF9108958581CA
:102F7000882391F00E94DA170E94AA060E94E017A7
:102F8000D82F0E94DD17C82F0E94DA174D2F6C2F03
:102F90000E94E10780E0E8CF0E94DA170E94B6069F
:102FA000EDCF8581882319F00E94DD17E5CF0E94BF
:102FB000DD17F4CF80910E01089580910D010895E1
:102FC00080910C01089585E290E00E940E248432E5
:102FD00089F486E290E00E940E24823059F487E260
:102FE00090E00E940E2491E0833009F090E0892F58
:102FF0008170089580E0FCCF882381F064E285E24F
:1030000090E00E942C2462E086E290E00E942C2452
:1030100063E087E290E00E942C2408956FEF85E240
:1030200090E00E942C246FEF86E290E00E942C2416
:103030006FEFEFCF0895A4E0B0E0E1E2F8E10C9487
:10304000BD2388E290E00E940E24282F30E040E06B
:1030500050E0CA01B9012496E2E00C94D923089506
:10306000CF93C62F0E942F186C2F88E290E00E9409
:103070002C24CF91089580E00E94FC1760E070E05E
:10308000CB010E9430180E944E110E94001281E074
:103090000E94FC1708950E941A180E941B180E9493
:1030A0002F180E94E317811102C00E943B18089557
:1030B00008959C01FB018581882351F0A901575790
:1030C0004038510530F4822F0E94101280E008959C
:1030D00081E008952FEFFC01208308950E946A1873
:1030E000089580E00895CF92DF92FF920F931F938F
:1030F000CF93DF93CDB7DEB72E970FB6F894DEBF30
:103100000FBECDBF8D839E83F62E8D819E810E9442
:103110007118811115C0AD81BE81EC91E150E33190
:1031200040F5F0E0E755FB4D0C94A023ED81FE81C6
:1031300011828CE082836F2D8D819E810E94C11C43
:103140002E960FB6F894DEBF0FBECDBFDF91CF91A4
:103150001F910F91FF90DF90CF900895AD81BE81B8
:1031600011968C91833099F148F4813081F082304E
:10317000E9F08FEFAD81BE818C93DDCF8430C9F74C
:10318000ED81FE811282138214821582D4CF0E94B7
:10319000021C0E94A6236F83788789879A87ED8116
:1031A000FE816283738384839583C5CF0E941B183D
:1031B0000E94A6236B877C878D879E87AD81BE8109
:1031C00012966D937D938D939C931597B4CFED815B
:1031D000FE81028110E06F01F3E0CF0ED11C0330BD
:1031E00011050CF0A8CF802F0E94B10FD6018D934E
:1031F0006D010F5F1F4FF3CFED81FE818181823022
:1032000049F0853009F0B5CFED81FE8182810E94C1
:10321000581891CFAD81BE8112968D919D910D90E0
:10322000BC91A02D89839A83AB83BC83BC01CD0163
:103230000E94A6230E9430187ECFAD81BE811396D6
:103240004C91139712966C91129711968C910E9443
:103250001011982789279827ED81FE819583848313
:103260006ACFAD81BE8114962D913C91159732277E
:103270002327322713964C91139712966C9112972D
:1032800011968C910E94321156CF0E944E1153CF4D
:103290006F2D8D819E810E946E184DCF0E94B811B6
:1032A000ED81FE81818347CF0E94BA11982789273B
:1032B0009827AD81BE8112969C938E9311973BCF38
:1032C000ED81FE81638170E081819281AF014C5F6D
:1032D0005F4F9827892798270E94BD112CCFAD8179
:1032E000BE8113966C91139770E011968D919C910D
:1032F0001297AD014C5F5F4F9827892798270E944E
:10330000DF1119CF0E94001216CF0E94FE10C8CF05
:10331000AD81BE8113966C91139770E011968D91DB
:103320009C911297AD014C5F5F4F98278927982792
:103330000E946E1100CFED81FE81638170E081817A
:103340009281AF014C5F5F4F9827892798270E9491
:103350008D11F1CE90936902809368020895E091F7
:103360006802F0916902309729F00190F081E02D18
:103370000995089580E00895E0916802F09169024E
:10338000309721F00280F381E02D09950895DC014A
:10339000E0916802F0916902309739F086E08C93F1
:1033A0000480F581E02DCD0109950895DC01E091BF
:1033B0006802F0916902309739F082E08C930680C0
:1033C000F781E02DCD0109950895A3E0B0E0EBEE83
:1033D000F9E10C94BD239C018091660290916702F3
:1033E00082179307A1F03093670220936602E09161
:1033F0006802F0916902309751F083E089833B8342
:103400002A830084F185E02DCE010196099523964B
:10341000E2E00C94D923A3E0B0E0E1E1FAE10C94FE
:10342000BD239C01809164029091650282179307ED
:10343000A1F03093650220936402E0916802F0915C
:103440006902309751F084E089833B832A830084AA
:10345000F185E02DCE01019609952396E2E00C94CA
:10346000D92320910201309103012E5F3F4F8091BB
:1034700019018823A9F08091760287FF11C020915D
:103480000001309101012E5F3F4F9DE180E0F90185
:1034900040812F5F3F4F41118F5F9150C0F70895DA
:1034A00095E0F4CF882321F190911901992311F12E
:1034B0009091760297FF1EC0982F969596959695B7
:1034C000803FB0F4E0910001F0910101E90FF11D9E
:1034D000228130E0877041E050E0BA0102C0660FFF
:1034E000771F8A95E2F72623372381E0232B91F477
:1034F00080E008952091020130910301F901329694
:10350000285F3F4F9191981721F0E217F307D1F709
:10351000EFCF81E008959C01FC0132968FEF90E09F
:103520004191461751F08F3F19F4411101C0892F85
:103530009F5F9630A9F78F3F09F40895280F311D3A
:1035400087FD3A95F901628308959C01FC0132964A
:10355000285F3F4F8191861303C0DF0111971C92B2
:10356000E217F307B9F70895FC01862F8695869533
:103570008695603F60F4E80FF11D677021E030E050
:1035800001C0220F6A95EAF78281822B8283089517
:10359000FC01862F869586958695603F80F4E80F1E
:1035A000F11D677081E090E09C0102C0220F331F83
:1035B0006A95E2F7B9016095828168236283089574
:1035C000682F80911901882359F08091760287FF36
:1035D00007C080910001909101010E94B41A0895E2
:1035E00080910201909103010E948B1A0895682F27
:1035F00080911901882359F08091760287FF07C0D6
:1036000080910001909101010E94C81A0895809153
:103610000201909103010E94A51A08958091190159
:10362000882379F08091760287FF0BC0E09100013A
:10363000F091010132968EE1DF011D928A95E9F742
:103640000895E0910201F0910301329686E0F4CFF3
:10365000DC01FB0111969C9111978181981322C086
:1036600012968C911297882319F0928189131AC0AF
:1036700013968C911397882319F09381891312C0A4
:1036800015968C911597882319F0958189130AC096
:1036900014969C91992321F081E02481291303C081
:1036A00080E001C081E08170089508950E94551B5B
:1036B00008958F5F80936A020E94561B089583E0ED
:1036C00080936A020E94561B08950E94591B089518
:1036D00081E080936A020E94561B08950E94681B35
:1036E0000895089508950E94721B089508950895FD
:1036F0000E94711B0895CF930E94761B0E94601058
:103700000E94771BC0E08C2F0E94B10F811105C071
:10371000CF5FC330C1F7CF91089581E0FCCF85B76B
:10372000806885BF85B7806885BF08951F921FB6E2
:103730001F9211248F939F93AF93BF9380916B023D
:10374000811113C080917E0290917F02A09180022E
:10375000B09181024196A11DB11D80937E0290938C
:103760007F02A0938002B0938102BF91AF919F919D
:103770008F911F901FBE1F901895809186028430F4
:1037800031F10E94B20210926B0288E190E020E4D5
:103790000FB6F894A895809360000FBE2093600048
:1037A00083B7817F846083BF83B7816083BF789450
:1037B000889583B78E7F83BF0FB6F894A8958091C4
:1037C0006000886180936000109260000FBE0895D1
:1037D0000E9430060E94B702089582E084BD93E003
:1037E00095BD9AEF97BD80936E0008952FB7F8941A
:1037F00080917E0290917F02A0918002B09181021F
:103800002FBF0895A4E0B0E0E8E0FCE10C94BD23F4
:103810008FB7F89420917E0230917F024091800210
:103820005091810229833A834B835C838FBF6981E6
:103830007A818B819C812496E2E00C94D9239C01AF
:103840004FB7F89480917E0290917F02A091800200
:10385000B09181024FBF821B930B089578941F9201
:103860001FB61F9211248F939F93AF93BF938091A4
:103870007E0290917F02A0918002B0918102019618
:10388000A11DB11D80937E0290937F02A0938002C0
:10389000B0938102BF91AF919F918F911F901FBEF6
:1038A0001F90189587E797E7909301088093000889
:1038B00088E19AE00FB6F894A895809360000FBE57
:1038C00090936000FFCF88E19AE00FB6F894A89536
:1038D000809360000FBE90936000FFCF80917402D0
:1038E0000895282FCB01BA01309186023430E1F4DB
:1038F0002F702093E9002FEF3091E80035FD07C0CD
:1039000035ED3A95F1F7000021502111F5CF2091C6
:10391000E80025FF09C040E050E00E94BB1E8091F6
:10392000E8008E778093E8000895BC0143E050E002
:1039300084E00E94711C0895BC0146E050E084E0E0
:103940000E94711C0895BC0140E250E084E00E9496
:10395000711C0895CF93DF93D82FC92F48E050E012
:10396000682F792F81E00E94711C88E0ED2FFC2FD9
:10397000ACE6B2E001900D928A95E1F7DF91CF912C
:103980000895792F603231F440E250E0682F82E0F0
:103990000E94711C089580918502811109C00E94C6
:1039A00092200E94EF208091E20084608093E200E8
:1039B00008951092850208950E94681B08956091F1
:1039C000820281E0611101C080E00E945F1B0895C6
:1039D0009091860281E0943009F080E0609182024B
:1039E0000E94651B089542E061EC81E00E940E2078
:1039F00042E261EC84E00E940E2042E261EC82E04F
:103A00000E940E2042E260EC83E00E940E20909122
:103A1000860281E0943009F080E0609182020E9489
:103A2000591B089580918802893089F148F48230C9
:103A300009F4A1C0833009F45BC0813041F00895DE
:103A40008A3009F488C08B3009F46DC008958091E4
:103A50008702813A09F04BC08091E800877F80930C
:103A6000E80080918B0290918C02892B61F060E0DC
:103A700080E090E070E00E94591F8091E8008B7711
:103A80008093E800089568E08CE692E0F3CF80919F
:103A90008702813261F580918B0290918C028D7F3B
:103AA000892B29F58091E800877F8093E800809139
:103AB000E80082FF18C09091F3008091F200029715
:103AC00031F48091F100813011F0863021F4809141
:103AD000F100809374028091E8008B778093E80076
:103AE0000E94422004C0809186028111E0CF089597
:103AF00080918702813AD9F780918B0290918C0254
:103B0000892BA9F78091E800877F8093E800809156
:103B1000E80080FFFCCF809119018093F100809133
:103B2000E8008E77DBCF80918702813201F78091A8
:103B30008B0290918C02892BD1F68091E800877FCF
:103B40008093E8000E9442208091890280931901AD
:103B50000E943006089580918702813241F680915B
:103B6000E800877F8093E8000E94422080918A02CB
:103B700080937502089580918702813A09F0B7CF4A
:103B80008091E800877F8093E8008091E80080FFC3
:103B9000FCCF80917502C1CF84B7877F84BF0FB6F9
:103BA000F894A895809160008861809360001092DD
:103BB00060000FBE80E890E00FB6F894809361003B
:103BC000909361000FBE0E946E1B08950E94922088
:103BD0000E94EF20E2EEF0E08081846080837894A0
:103BE0000E94722308958FE091E00E94AA1908951F
:103BF00080918602853031F480918602853019F0FB
:103C00000E94E81B08950E94BD1B809184028823B6
:103C100099F30E947B1B882379F30E94A51E0E94C2
:103C20003006EACFA0E2B0E0E8E1FEE10C94BD236B
:103C300080918602843081F483E08093E900809152
:103C4000E80082FF09C08091E80085FD09C08091ED
:103C5000E8008B778093E800A096E2E00C94D923EB
:103C600040E050E060E270E0CE0101960E940A1F41
:103C70008091E8008B778093E80060E2CE010196A6
:103C80000E947318E9CF9A0140918D0250918E02E3
:103C90000E944B1E0895AC01CB01D901252F33277B
:103CA0002330310521F168F42130310509F443C096
:103CB0002230310509F444C080E090E020E030E09B
:103CC00024C02132310551F122323105A9F7833068
:103CD000910590F7FC01EE0FFF1FE157FE4F208189
:103CE000318184579E4FFC01808190E00EC0CA0153
:103CF0009927413069F08230910569F0E2E9F1E0FD
:103D0000892BD1F6849190E09F012D933C930895E7
:103D1000E2E8F1E0F7CFEEE6F1E0F4CF8330910591
:103D200058F6FC01EE0FFF1FEB56FE4F208131814C
:103D300089E090E0EACF82E190E021EF31E0E5CF49
:103D40008BE590E026E931E0E0CF80E189BD82E1BA
:103D500089BD09B400FEFDCF8091D8008F7D80938E
:103D6000D8008091E00082608093E0008091E000C4
:103D700081FDFCCF0895AF92BF92CF92DF92FF9268
:103D80000F931F93CF93DF936C01EB018A010E9485
:103D90006120F82E811123C00115110539F0F801B9
:103DA00080819181C81BD90BC80ED91EA12CB12CC2
:103DB0002097A9F08091E80085FD22C08091E8005D
:103DC0008E778093E80001151105A1F0F80180813C
:103DD00091818A0D9B1D9183808385E0F82E8F2D24
:103DE000DF91CF911F910F91FF90DF90CF90BF9007
:103DF000AF9008950E9461208823E1F2F82EEFCF62
:103E0000F60181916F018093F1002197FFEFAF1AC6
:103E1000BF0ACECFAF92BF92CF92DF92FF920F93A5
:103E20001F93CF93DF936C01EB018A010E94612005
:103E3000F82E811123C00115110539F0F801808198
:103E40009181C81BD90BC80ED91EA12CB12C20976B
:103E5000A9F08091E80085FD22C08091E8008B7771
:103E60008093E80001151105A1F0F801808191818E
:103E70008A0D9B1D9183808385E0F82E8F2DDF9125
:103E8000CF911F910F91FF90DF90CF90BF90AF9097
:103E900008950E9461208823E1F2F82EEFCF8091EF
:103EA000F100F60181936F012197FFEFAF1ABF0A6E
:103EB000CECFFC019B0180918D0290918E028617DE
:103EC000970718F0672B61F0C90140E0009771F483
:103ED00041110CC08091E80082FF35C080E0089558
:103EE0008091E8008E778093E800EECF20918602E3
:103EF0002223A9F12530A9F12091E80023FD2DC04E
:103F00002091E80022FDE6CF2091E80020FFDECFDF
:103F10003091F3002091F200009719F0283031051C
:103F200058F041E02830310509F040E02091E800E8
:103F30002E772093E800CACF41914093F10001977A
:103F40002F5F3F4FE9CF80918602882341F0853073
:103F500041F08091E80083FFBDCF81E0089582E0C9
:103F6000089583E00895FC019B0180918D0290915A
:103F70008E028617970718F0672B61F0C90140E0A1
:103F8000009771F441110CC08091E80082FF36C0A7
:103F900080E008958091E8008E778093E800EECF6E
:103FA000209186022223B1F12530B1F12091E80061
:103FB00023FD2EC02091E80022FDE6CF2091E800ED
:103FC00020FFDECF3091F3002091F200009719F02E
:103FD0002830310558F041E02830310509F040E043
:103FE0002091E8002E772093E800CACF44914093B7
:103FF000F100319601972F5F3F4FE8CF8091860205
:10400000882341F0853041F08091E80083FFBCCFE8
:1040100081E0089582E0089583E00895982F973015
:1040200028F08F708093E90081E008959093E90073
:10403000242F762F50E0981731F07091EC002091EA
:10404000ED005091F00021FD02C09F5FE8CF30915C
:10405000EB003E7F3093EB003091ED003D7F3093DD
:10406000ED003091EB0031603093EB007093EC0089
:104070002093ED005093F0002091EE0027FDE5CF56
:1040800080E008958091870287FF13C08091E80047
:1040900082FF06C08091E8008B778093E80004C01F
:1040A000809186028111F2CF089580918602882343
:1040B000D9F38091E80080FFF8CF8091E8008E77F7
:1040C000ECCF2091E4003091E50095E6A9018091C4
:1040D000EC008170882331F08091E80080FF06C0F9
:1040E00080E008952091E80022FD1BC080918602A7
:1040F000882391F0853091F08091EB0085FD10C010
:104100002091E4003091E5004217530701F39150EC
:104110009111DCCF84E0089582E0089583E0089552
:1041200081E008950E9401210E940921E0EEF0E063
:10413000808181608083E8EDF0E080818F778083EB
:1041400019BCA7EDB0E08C918E7F8C9380818F7E1F
:1041500080831092850208950F931F93CF93DF936E
:104160000E9401210E940921C8EDD0E088818F774B
:10417000888388818068888388818F7D888319BC43
:104180001092860210928202109284021092830290
:1041900000EE10E0F80180818B7F80838881816050
:1041A000888342E060E080E00E940E20E1EEF0E0D3
:1041B00080818E7F8083E2EEF0E080818160808369
:1041C000808188608083F80180818E7F80838881F0
:1041D00080618883DF91CF911F910F910895E8ED61
:1041E000F0E080818F7E8083E7EDF0E08081816068
:1041F000808384E082BF81E0809385020E94AC20AE
:104200000895E8EDF0E080818E7F80831092E200D7
:1042100008951092DA001092E10008951F920F9213
:104220000FB60F9211242F933F934F935F936F9389
:104230007F938F939F93AF93BF93EF93FF9380915F
:10424000E10082FF0BC08091E20082FF07C08091F5
:10425000E1008B7F8093E1000E9471238091DA005E
:1042600080FF19C08091D80080FF15C08091DA00CE
:104270008E7F8093DA008091D90080FF94C080E126
:1042800089BD82E189BD09B400FEFDCF81E0809344
:1042900086020E94CB1C8091E10080FF19C08091B2
:1042A000E20080FF15C08091E2008E7F8093E200E3
:1042B0008091E20080618093E2008091D80080626A
:1042C0008093D80019BC85E0809386020E94DF1C91
:1042D0008091E10084FF29C08091E20084FF25C025
:1042E00080E189BD82E189BD09B400FEFDCF8091E6
:1042F000D8008F7D8093D8008091E1008F7E8093DD
:10430000E1008091E2008F7E8093E2008091E200E4
:1043100081608093E20080918202882309F449C081
:1043200084E0809386020E94E81C8091E10083FF74
:1043300029C08091E20083FF25C08091E100877F42
:104340008093E10082E08093860210928202809145
:10435000E1008E7F8093E1008091E2008E7F809368
:10436000E2008091E20080618093E20042E060E040
:1043700080E00E940E208091F00088608093F00021
:104380000E94DC1CFF91EF91BF91AF919F918F91A3
:104390007F916F915F914F913F912F910F900FBE41
:1043A0000F901F90189519BC109286020E94D91C7C
:1043B00072CF8091E30087FF02C083E0B2CF81E03B
:1043C000B0CF1F920F920FB60F921124FF920F934E
:1043D0001F932F933F934F935F936F937F938F938D
:1043E0009F93AF93BF93CF93DF93EF93FF9309EE28
:1043F00010E0F8018081C091EC00C795CC27C795EB
:104400008F70FC2EF82A1082C0EFD0E08881877F61
:10441000888378940E942A22F8011082888188601B
:104420008883CF2DCF70C083FF91EF91DF91CF9123
:10443000BF91AF919F918F917F916F915F914F91BC
:104440003F912F911F910F91FF900F900FBE0F90F2
:104450001F901895AAE2B0E0E0E3F2E20C94BC23CE
:1044600087E892E0FC0101962091F100208322E090
:104470008F389207B9F70E94121D8091E80083FFE0
:1044800038C080918702909188029A3090F5E92F88
:10449000F0E0E454FB4D0C94A023803889F082387E
:1044A00041F580918B028F70873018F58093E90079
:1044B0008091EB0085FB882780F91092E90006C007
:1044C0008091830290918402911182609091E80022
:1044D000977F9093E8008093F1001092F100809113
:1044E000E8008E7723C0811116C080918902813047
:1044F00011F18091E80083FF0AC08091E800877F76
:104500008093E8008091EB0080628093EB00AA9694
:10451000E3E00C94D823823061F7809189028823EC
:1045200089F01092E9008091E800877F8093E8008D
:104530000E944220DECF81E0933009F080E080933A
:104540008402EFCF80918B028F702FEF280F2630DF
:1045500080F68093E9002091EB0020FFE2CF9330BA
:1045600031F48091EB0080628093EB00DACF909180
:10457000EB0090619093EB0021E030E0A90102C0D4
:10458000440F551F8A95E2F74093EA001092EA0023
:104590008091EB008860E8CF8111ABCF1091890248
:1045A0001F778091E3008078812B8093E3008091D6
:1045B000E800877F8093E8000E9442208091E80015
:1045C00080FFFCCF8091E30080688093E30083E06C
:1045D000111101C082E0809386028BCF8058823017
:1045E00008F087CF8091890290918A028C3D53E038
:1045F000950799F583E08A838AE289834FB7F89417
:10460000DE01139620E03EE051E2E32FF0E050930C
:104610005700849120FF03C082958F703F5F8F7099
:104620008A30C8F0895C90E08D939D932F5F243190
:1046300061F74FBF8091E800877F8093E8006AE2CE
:1046400070E0CE0101960E94591F8091E8008B779F
:104650008093E8004ECF805DE6CF60918B02709131
:104660008C02AE014F5F5F4F0E94431EBC01892B3D
:1046700009F43FCF8091E800877F8093E80089812B
:104680009A810E94B31FE1CF803809F032CF809128
:10469000E800877F8093E800809182028093F10098
:1046A0001ECF811126CF90918902923008F021CF40
:1046B0008091E800877F8093E800909382020E94B7
:1046C000422080918202882331F084E08093860228
:1046D0000E94F31C0ECF8091E30087FDF6CF81E0AE
:1046E000F5CF0895CF9380918602882399F0809129
:1046F000E900C091EC00C795CC27C7958F70C82BF7
:104700001092E9008091E80083FD0E942A22CF7078
:10471000C093E900CF91089597FB072E16F40094FB
:1047200007D077FD09D00E94E42307FC05D03EF4B2
:10473000909581959F4F0895709561957F4F08954D
:10474000EE0FFF1F0590F491E02D0994692796273D
:10475000692778278727782708952F923F924F92CD
:104760005F926F927F928F929F92AF92BF92CF9201
:10477000DF92EF92FF920F931F93CF93DF93CDB70A
:10478000DEB7CA1BDB0B0FB6F894DEBF0FBECDBF82
:1047900009942A88398848885F846E847D848C8453
:1047A0009B84AA84B984C884DF80EE80FD800C815C
:1047B0001B81AA81B981CE0FD11D0FB6F894DEBF3F
:1047C0000FBECDBFED010895AA1BBB1B51E107C071
:1047D000AA1FBB1FA617B70710F0A61BB70B881F91
:1047E000991F5A95A9F780959095BC01CD01089520
:1047F000FB01DC0104C08D910190801921F441502E
:104800005040C8F7881B990B0895FB01DC0102C0DA
:1048100001900D9241505040D8F70895F999FECF7C
:1048200092BD81BDF89A992780B50895A8E1B0E0BE
:1048300042E050E00C945224DC01A40FB51F41501B
:10484000504048F0CB01840F951F2E910E942D24DB
:1048500041505040D0F70895262FF999FECF92BDD0
:1048600081BDF89A019700B4021639F01FBA20BD35
:104870000FB6F894FA9AF99A0FBE08950396272F67
:104880000E942D240E942C24252F0E942D24242FA9
:104890000C942D240196272F0E942D240C942C2457
:1048A000DC01CB01FC01F999FECF06C0F2BDE1BDF0
:1048B000F89A319600B40D9241505040B8F70895DF
:1048C000F894FFCF260426046D046D04D204EF048F
:1048D00055045504F404610572057205111385131E
:1048E0001913E312E7121D13EB1221132D13F71204
:1048F0007E13FB123113FF1235135D1303133913AB
:10490000641309133F134713EF122513F3122913EE
:104910000D13431353136D137C13DD1215138C13F6
:104920004B144E14541469146914691469146914ED
:1049300069146914691457145C14601466147714AC
:104940007D1481148317891773177D178F17951797
:104950009B179618AE18FC181D19311945194819DE
:1049600048194819B918B9184E19541960196F190E
:104970008219851988199B194D2273227922732275
:0C4980007922CC22EE227922442351231C
:10498C0018023802280850011E0A14010302016E95
:10499C001CAA1CA31C9C1C951C01E200E900EA004B
:1049AC00B500B600B700CD008301CC008A0192019E
:1049BC0094012102230224022502260227022A0244
:1049CC00B300B4006F0070009F01CB019F02A002E6
:1049DC00E200E900EA00B500B600B700CD008301A3
:1049EC00CC008A01920194012102230224022502A7
:1049FC00260227022A02B300B4006F0070009F0148
:104A0C00CB019F02A002919094F6F5314422B6DBC3
:0C4A1C000203022502A801C101E1010013
:00000001FF
